:100000000C9434000C943E000C943E000C943E0082
:100010000C943E000C943E000C943E000C943E0068
:100020000C943E000C943E000C943E000C943E0058
:100030000C943E000C943E000C943E000C943E0048
:100040000C943E000C943E000C943E000C943E0038
:100050000C943E000C943E000C943E000C943E0028
:100060000C943E000C943E0011241FBECFEFD8E04C
:10007000DEBFCDBF0E9468000C94DB000C94000032
:10008000CF93DF9316BC84B58C7F84BD85B5877F05
:1000900085BD85B58D7F85BD85B5856085BDC0E095
:1000A000D0E006C0A89BFECF85B3816085BB2196BA
:1000B000BE0180E090E00E947A0027ED33E244E741
:1000C00052E40E94750088236CF3DF91CF9108956C
:1000D00084B1846084B985B18B7F85B995B184E0A2
:1000E000892785B90E944000F9CF0E94B70008F423
:1000F00081E00895E89409C097FB3EF490958095BF
:10010000709561957F4F8F4F9F4F9923A9F0F92FDD
:1001100096E9BB279395F695879577956795B7955B
:10012000F111F8CFFAF4BB0F11F460FF1BC06F5F41
:100130007F4F8F4F9F4F16C0882311F096E911C053
:10014000772321F09EE8872F762F05C0662371F074
:1001500096E8862F70E060E02AF09A95660F771F88
:10016000881FDAF7880F9695879597F90895990F64
:100170000008550FAA0BE0E8FEEF16161706E80771
:10018000F907C0F012161306E407F50798F0621B92
:10019000730B840B950B39F40A2661F0232B242B67
:1001A000252B21F408950A2609F4A140A6958FEF86
:0A01B000811D811D0895F894FFCF12
:00000001FF
