:100000000C9434000C943E000C943E000C943E0082
:100010000C943E000C943E000C943E000C943E0068
:100020000C943E000C943E000C943E000C943E0058
:100030000C943E000C943E000C943E000C943E0048
:100040000C943E000C943E000C943E000C943E0038
:100050000C943E000C943E000C943E000C943E0028
:100060000C943E000C943E0011241FBECFEFD8E04C
:10007000DEBFCDBF0E9440000C9479000C940000BC
:100080008AB18C608AB987B1897F87B988B1866067
:1000900088B9329907C08BB184608BB98BB1877FE7
:1000A0008BB906C08BB1877F8BB98BB18B7F8BB936
:1000B0003199EFCF8BB184608BB98BB1877F8BB9CE
:1000C0002FEF83ED90E3215080409040E1F700C096
:1000D00000008BB188608BB98BB18B7F8BB92FEF10
:1000E00083ED90E3215080409040E1F700C0000094
:0600F000D0CFF894FFCF11
:00000001FF
