:100000000C9434000C943E000C943E000C943E0082
:100010000C943E000C943E000C943E000C943E0068
:100020000C943E000C943E000C943E000C943E0058
:100030000C943E000C943E000C943E000C943E0048
:100040000C943E000C943E000C943E000C943E0038
:100050000C943E000C943E000C943E000C943E0028
:100060000C943E000C943E0011241FBECFEFD8E04C
:10007000DEBFCDBF0E9464000C9482000C9400008F
:100080008AB180648AB98AB18C608AB98BB1846084
:100090008BB98BB1877F8BB984B5816084BD84B502
:1000A0008D7F84BD85B5877F85BD84B58F7B84BDFD
:1000B00084B5806884BD85B58A7F85BD85B582603D
:1000C00085BD80E887BD08950E94400080E090E0F3
:1000D00008C087BDEFE3FCE93197F1F700C00000ED
:1000E000019681389105A8F380E890E008C087BDAB
:1000F000EFE3FCE93197F1F700C0000001970097AA
:08010000B1F7E4CFF894FFCF42
:00000001FF
