:100000000C9434000C943E000C943E000C943E0082
:100010000C943E000C943E000C943E000C943E0068
:100020000C943E000C943E000C943E000C943E0058
:100030000C943E000C943E000C943E000C943E0048
:100040000C943E000C943E000C943E000C943E0038
:100050000C943E000C943E000C943E000C943E0028
:100060000C943E000C943E0011241FBECFEFD8E04C
:10007000DEBFCDBF0E9440000C9497000C9400009E
:100080008AEA8AB982E08BB92FEF81EE94E02150A1
:1000900080409040E1F700C000001BB82FEF81EED8
:1000A00094E0215080409040E1F700C0000088E0DB
:1000B0008BB92FEF81EE94E0215080409040E1F722
:1000C00000C000001BB82FEF81EE94E0215080406B
:1000D0009040E1F700C0000080E28BB92FEF81EE85
:1000E00094E0215080409040E1F700C000001BB830
:1000F0002FEF81EE94E0215080409040E1F700C066
:10010000000080E88BB92FEF81EE94E02150804011
:100110009040E1F700C000001BB82FEF81EE94E0A3
:10012000215080409040E1F700C00000ABCFF89430
:02013000FFCFFF
:00000001FF
