:100000000C9434000C943E000C943E000C943E0082
:100010000C943E000C943E000C943E000C943E0068
:100020000C943E000C943E000C943E000C943E0058
:100030000C943E000C943E000C943E000C943E0048
:100040000C943E000C943E000C943E000C943E0038
:100050000C943E000C943E000C943E000C943E0028
:100060000C943E000C943E0011241FBECFEFD8E04C
:10007000DEBFCDBF0E9457000C946C000C940000B2
:100080008AB180648AB984B5836084BD85B5877F71
:1000900085BD84B58F7B84BD84B5806884BD85B5FE
:1000A000836085BD85B58B7F85BD17BC08950E9493
:1000B000400080E090E00BC087BD2FEF39EF40E0BB
:1000C000215030404040E1F700C0000001968F3FD2
:0C00D000910591F388F3EDCFF894FFCF79
:00000001FF
