:100000000C9434000C943E000C943E000C943E0082
:100010000C943E000C943E000C943E000C943E0068
:100020000C943E000C943E000C943E000C943E0058
:100030000C943E000C943E000C943E000C943E0048
:100040000C943E000C943E000C943E000C943E0038
:100050000C943E000C943E000C943E000C943E0028
:100060000C943E000C943E0011241FBECFEFD8E04C
:10007000DEBFCDBF0E9440000C9469000C940000CC
:100080008AB18A608AB98BB18A608BB92FEF81EE11
:1000900094E0215080409040E1F700C000008BB117
:1000A000857F8BB92FEF81EE94E021508040904006
:1000B000E1F700C000009BB18AE089278BB92FEFE0
:1000C00083EC99E0215080409040E1F700C00000AF
:0600D000DACFF894FFCF27
:00000001FF
