S02B000064656C61795F66756E6374696F6E5F7573696E675F4354435F6D6F64655F54696D6572302E73726536
S11300000C9434000C943E000C943E000C943E007E
S11300100C943E000C943E000C943E000C943E0064
S11300200C943E000C943E000C943E000C943E0054
S11300300C943E000C943E000C943E000C943E0044
S11300400C943E000C943E000C943E000C943E0034
S11300500C943E000C943E000C943E000C943E0024
S11300600C943E000C943E0011241FBECFEFD8E048
S1130070DEBFCDBF0E945E000C946B000C940000A8
S113008016BC84B58E7F84BD84B5826084BD85B57D
S1130090836085BD85B58B7F85BD89EF87BD20E0F5
S11300A030E007C0A99BFECF85B3826085BB2F5F7C
S11300B03F4F283E83E03807A8F3089584B1806257
S11300C084B985B18F7D85B995B180E2892785B9D9
S10D00D00E944000F9CFF894FFCF1E
S9030000FC
