S014000070756C6C5F646F776E5F48572E737265633E
S11300000C9434000C943E000C943E000C943E007E
S11300100C943E000C943E000C943E000C943E0064
S11300200C943E000C943E000C943E000C943E0054
S11300300C943E000C943E000C943E000C943E0044
S11300400C943E000C943E000C943E000C943E0034
S11300500C943E000C943E000C943E000C943E0024
S11300600C943E000C943E0011241FBECFEFD8E048
S1130070DEBFCDBF0E9440000C9472000C940000BF
S11300808AB18F7E8AB987B18E6087B94C9B0BC0C9
S113009082E088B92FEF87EA91E6215080409040B2
S11300A0E1F700C000004C9B0BC084E088B92FEF3F
S11300B087EA91E6215080409040E1F700C00000BB
S11300C04C9B0CC088E088B92FEF87EA91E6215059
S11300D080409040E1F700C00000D8CF88B1817F14
S10B00E088B9D4CFF894FFCFD6
S9030000FC
