:100000000C945A000C946C000C946C000C946C00D2
:100010000C946C000C946C000C946C000C946C00B0
:100020000C946C000C946C000C946C000C946C00A0
:100030000C946C000C946C000C946C000C946C0090
:100040000C946E000C946C000C946C000C946C007E
:100050000C946C000C946C000C946C000C946C0070
:100060000C946C000C946C000C946C000C946C0060
:100070000C946C000C946C000C946C000C946C0050
:100080000C946C000C946C000C946C000C946C0040
:100090000C946C000C946C000C946C000C946C0030
:1000A0000C946C000C946C000C946C000C946C0020
:1000B0000C946C0011241FBECFEFD8E0DEBFCDBF83
:1000C00021E0A0E0B1E001C01D92A230B207E1F74B
:1000D0000E94A7000C94B3000C9400001F920F9292
:1000E0000FB60F9211242F938F939F93809100014D
:1000F00090910101803D934048F095B184E08927BB
:1001000085B9109201011092000109C0809100018F
:1001100090910101019690930101809300019F91BC
:100120008F912F910F900FBE0F901F90189578947C
:1001300084B58C7F84BD85B5836085BD85B58B7F97
:1001400085BDEEE6F0E080818160808308950E94A5
:10015000970084B1866084B985B1897F85B985B1FE
:0A016000826085B9FCCFF894FFCF50
:00000001FF
